:03000000020800F3
:0C080000787FE4F6D8FD758113020847EC
:0C08DE000A0A3F065B4F666D7D07FF674E
:1008B800E4FDFCC3ED9FEE6480F8EC64809850156D
:1008C800E4FBFA0BBB00010AEB64734A70F50DBD3B
:0508D80000010C80DEB0
:0108DD0022F8
:10088C00E4F5A0740A2509F8E6F5A07FE87E0312CA
:10089C0008B80509E50970020508C3940AE508645F
:0C08AC0080948040DEE4F508F50980D758
:10080C0002088CE493A3F8E493A34003F68001F26E
:10081C0008DFF48029E493A3F85407240CC8C333ED
:10082C00C4540F4420C8834004F456800146F6DFBC
:10083C00E4800B01020408102040809008DEE47E66
:10084C00019360BCA3FF543F30E509541FFEE493B1
:10085C00A360010ECF54C025E060A840B8E493A378
:10086C00FAE493A3F8E493A3C8C582C8CAC583CAA3
:10087C00F0A3C8C582C8CAC583CADFE9DEE780BE5B
:0108EA00000D
:00000001FF
